{
  "contractName": "Account",
  "abi": [
    {
      "constant": false,
      "inputs": [
        {
          "name": "_id",
          "type": "uint256"
        },
        {
          "name": "_pin",
          "type": "uint256"
        },
        {
          "name": "_newPin",
          "type": "uint256"
        }
      ],
      "name": "changePin",
      "outputs": [
        {
          "name": "",
          "type": "bool"
        }
      ],
      "payable": false,
      "stateMutability": "nonpayable",
      "type": "function"
    },
    {
      "constant": true,
      "inputs": [
        {
          "name": "_id",
          "type": "uint256"
        },
        {
          "name": "_value",
          "type": "uint256"
        },
        {
          "name": "_id",
          "type": "uint256"
        },
        {
          "name": "_chikwamaType",
          "type": "uint8"
        },
        {
          "name": "_pin",
          "type": "uint256"
        }
      ],
      "name": "getChikwama",
      "outputs": [
        {
          "name": "",
          "type": "address"
        }
      ],
      "payable": false,
      "stateMutability": "view",
      "type": "function"
    },
    {
      "constant": true,
      "inputs": [
        {
          "name": "_id",
          "type": "uint256"
        },
        {
          "name": "_pin",
          "type": "uint256"
        }
      ],
      "name": "checkPin",
      "outputs": [
        {
          "name": "",
          "type": "bool"
        }
      ],
      "payable": false,
      "stateMutability": "view",
      "type": "function"
    },
    {
      "constant": true,
      "inputs": [
        {
          "name": "_id",
          "type": "uint256"
        },
        {
          "name": "_pin",
          "type": "uint256"
        }
      ],
      "name": "accountCount",
      "outputs": [
        {
          "name": "",
          "type": "uint256"
        }
      ],
      "payable": false,
      "stateMutability": "view",
      "type": "function"
    },
    {
      "constant": false,
      "inputs": [
        {
          "name": "_value",
          "type": "uint256"
        },
        {
          "name": "_id",
          "type": "uint256"
        },
        {
          "name": "_chikwamaType",
          "type": "uint8"
        },
        {
          "name": "_pin",
          "type": "uint256"
        }
      ],
      "name": "createChikwama",
      "outputs": [
        {
          "name": "",
          "type": "bool"
        }
      ],
      "payable": false,
      "stateMutability": "nonpayable",
      "type": "function"
    },
    {
      "anonymous": false,
      "inputs": [
        {
          "indexed": false,
          "name": "NationalID",
          "type": "bytes32"
        },
        {
          "indexed": false,
          "name": "ChikwamaAddress",
          "type": "address"
        }
      ],
      "name": "CreateAccount",
      "type": "event"
    }
  ],
  "bytecode": "0x6060604052341561000f57600080fd5b6109e78061001e6000396000f30060606040526004361061006d576000357c0100000000000000000000000000000000000000000000000000000000900463ffffffff168063169fad3d14610072578063b50ddad6146100bf578063d4d75be814610122578063e4af29fc14610166578063ff8ee48f1461018f575b600080fd5b341561007d57600080fd5b6100a560048080359060200190919080359060200190919080359060200190919050506101e8565b604051808215151515815260200191505060405180910390f35b34156100ca57600080fd5b6100e06004808035906020019091905050610377565b604051808273ffffffffffffffffffffffffffffffffffffffff1673ffffffffffffffffffffffffffffffffffffffff16815260200191505060405180910390f35b341561012d57600080fd5b61014c6004808035906020019091908035906020019091905050610466565b604051808215151515815260200191505060405180910390f35b341561017157600080fd5b610179610562565b6040518082815260200191505060405180910390f35b341561019a57600080fd5b6101ce600480803590602001909190803590602001909190803560ff16906020019091908035906020019091905050610568565b604051808215151515815260200191505060405180910390f35b60008060016000866040518082815260200191505060405180910390206000191660001916815260200190815260200160002060009054906101000a900473ffffffffffffffffffffffffffffffffffffffff1690508360405180828152602001915050604051809103902060001916600260008373ffffffffffffffffffffffffffffffffffffffff1673ffffffffffffffffffffffffffffffffffffffff168152602001908152602001600020600087604051808281526020019150506040518091039020600019166000191681526020019081526020016000206004015460001916141561036a5782604051808281526020019150506040518091039020600260008373ffffffffffffffffffffffffffffffffffffffff1673ffffffffffffffffffffffffffffffffffffffff1681526020019081526020016000206000876040518082815260200191505060405180910390206000191660001916815260200190815260200160002060040181600019169055506001915061036f565b600091505b509392505050565b60008060016000846040518082815260200191505060405180910390206000191660001916815260200190815260200160002060009054906101000a900473ffffffffffffffffffffffffffffffffffffffff169050600260008273ffffffffffffffffffffffffffffffffffffffff1673ffffffffffffffffffffffffffffffffffffffff1681526020019081526020016000206000846040518082815260200191505060405180910390206000191660001916815260200190815260200160002060000160009054906101000a900473ffffffffffffffffffffffffffffffffffffffff16915050919050565b60008060016000856040518082815260200191505060405180910390206000191660001916815260200190815260200160002060009054906101000a900473ffffffffffffffffffffffffffffffffffffffff1690508260405180828152602001915050604051809103902060001916600260008373ffffffffffffffffffffffffffffffffffffffff1673ffffffffffffffffffffffffffffffffffffffff168152602001908152602001600020600086604051808281526020019150506040518091039020600019166000191681526020019081526020016000206004015460001916141561055a576001915061055b565b5b5092915050565b60005481565b60008060016000866040518082815260200191505060405180910390206000191660001916815260200190815260200160002060009054906101000a900473ffffffffffffffffffffffffffffffffffffffff1673ffffffffffffffffffffffffffffffffffffffff1614156109b2573360016000866040518082815260200191505060405180910390206000191660001916815260200190815260200160002060006101000a81548173ffffffffffffffffffffffffffffffffffffffff021916908373ffffffffffffffffffffffffffffffffffffffff16021790555033600260003373ffffffffffffffffffffffffffffffffffffffff1673ffffffffffffffffffffffffffffffffffffffff1681526020019081526020016000206000866040518082815260200191505060405180910390206000191660001916815260200190815260200160002060000160006101000a81548173ffffffffffffffffffffffffffffffffffffffff021916908373ffffffffffffffffffffffffffffffffffffffff16021790555083604051808281526020019150506040518091039020600260003373ffffffffffffffffffffffffffffffffffffffff1673ffffffffffffffffffffffffffffffffffffffff16815260200190815260200160002060008660405180828152602001915050604051809103902060001916600019168152602001908152602001600020600201816000191690555084600260003373ffffffffffffffffffffffffffffffffffffffff1673ffffffffffffffffffffffffffffffffffffffff168152602001908152602001600020600086604051808281526020019150506040518091039020600019166000191681526020019081526020016000206001018190555082600260003373ffffffffffffffffffffffffffffffffffffffff1673ffffffffffffffffffffffffffffffffffffffff1681526020019081526020016000206000866040518082815260200191505060405180910390206000191660001916815260200190815260200160002060030160006101000a81548160ff021916908360ff16021790555081604051808281526020019150506040518091039020600260003373ffffffffffffffffffffffffffffffffffffffff1673ffffffffffffffffffffffffffffffffffffffff16815260200190815260200160002060008660405180828152602001915050604051809103902060001916600019168152602001908152602001600020600401816000191690555060008081548092919060010191905055507fae420988b408fa1c16c342c73f56ece9307da09db1ac6b36fc8d9ff61acaa9a284604051808281526020019150506040518091039020336040518083600019166000191681526020018273ffffffffffffffffffffffffffffffffffffffff1673ffffffffffffffffffffffffffffffffffffffff1681526020019250505060405180910390a1600190506109b3565b5b9493505050505600a165627a7a7230582033b491f1e0db4990e1662ed408510a9a9278dede584cea98ede36f4d106cd4a20029",
  "source": "pragma solidity ^0.4.4;\n\ncontract Account{\n\n     struct Account\n     {\n        address add;\n        uint value;\n        bytes32 id;\n        uint8 chikwamaType; //0 central office 1 Agent 2 EndUser\n        bytes32 pin;\n    }\n\n    uint256 public accountCount;\n    mapping(bytes32 => address) accounts;\n    mapping(address => mapping(bytes32 => Account)) chikwama;\n\n    event CreateAccount(bytes32 NationalID, address ChikwamaAddress);\n\n  /*  function createChikwama(address _add, uint256 _value, uint256 _id, uint8 _chikwamaType, uint256 _pin) public returns(bool)\n    {\n        if (accounts[keccak256(_id)]==0x0)\n        {\n            accounts[keccak256(_id)] = _add;\n            chikwama[_add][keccak256(_id)].add = _add;\n            chikwama[_add][keccak256(_id)].id = keccak256(_id);\n            chikwama[_add][keccak256(_id)].value = _value;\n            chikwama[_add][keccak256(_id)].chikwamaType = _chikwamaType;\n            chikwama[_add][keccak256(_id)].pin = keccak256(_pin);\n            accountCount++;\n            CreateAccount(keccak256(_id),_add);\n            return true;\n        }\n\n    }*/\n\n    function createChikwama( uint256 _value, uint256 _id, uint8 _chikwamaType, uint256 _pin) public returns(bool)\n     {\n         if (accounts[keccak256(_id)]==0x0)\n         {\n             accounts[keccak256(_id)] = msg.sender;\n             chikwama[msg.sender][keccak256(_id)].add = msg.sender;\n             chikwama[msg.sender][keccak256(_id)].id = keccak256(_id);\n             chikwama[msg.sender][keccak256(_id)].value = _value;\n             chikwama[msg.sender][keccak256(_id)].chikwamaType = _chikwamaType;\n             chikwama[msg.sender][keccak256(_id)].pin = keccak256(_pin);\n             accountCount++;\n             CreateAccount(keccak256(_id),msg.sender);\n             return true;\n         }\n\n     }\n\n\n    function getChikwama(uint256 _id) public constant returns(address) {\n        address _add = accounts[keccak256(_id)];\n\n        return chikwama[_add][keccak256(_id)].add;\n\n    }\n\n    function checkPin(uint256 _id, uint256 _pin) public constant returns(bool){\n        address _add = accounts[keccak256(_id)];\n        if(chikwama[_add][keccak256(_id)].pin==keccak256(_pin))return true;\n    }\n\n    function changePin(uint256 _id, uint256 _pin, uint256 _newPin) public returns(bool)\n    {\n        address _add = accounts[keccak256(_id)];\n        if(chikwama[_add][keccak256(_id)].pin == keccak256(_pin))\n        {\n            chikwama[_add][keccak256(_id)].pin = keccak256(_newPin);\n            return true;\n        }\n        else return false;\n    }\n}\n",
  "sourcePath": "/Applications/MAMP/htdocs/Chikwama/contracts/Account.sol",
  "compiler": {
    "name": "solc",
    "version": "0.4.18+commit.9cf6e910.Emscripten.clang"
  },
  "schemaVersion": "1.0.1",
  "updatedAt": "2017-11-08T11:55:01.396Z"
}